{
  "_format": "hh3-artifact-1",
  "contractName": "GameStorage",
  "sourceName": "contracts/GameStorage.sol",
  "abi": [
    {
      "inputs": [
        {
          "internalType": "address",
          "name": "initialOwner",
          "type": "address"
        }
      ],
      "stateMutability": "nonpayable",
      "type": "constructor"
    },
    {
      "inputs": [
        {
          "internalType": "address",
          "name": "owner",
          "type": "address"
        }
      ],
      "name": "OwnableInvalidOwner",
      "type": "error"
    },
    {
      "inputs": [
        {
          "internalType": "address",
          "name": "account",
          "type": "address"
        }
      ],
      "name": "OwnableUnauthorizedAccount",
      "type": "error"
    },
    {
      "anonymous": false,
      "inputs": [
        {
          "indexed": true,
          "internalType": "address",
          "name": "previousOwner",
          "type": "address"
        },
        {
          "indexed": true,
          "internalType": "address",
          "name": "newOwner",
          "type": "address"
        }
      ],
      "name": "OwnershipTransferred",
      "type": "event"
    },
    {
      "anonymous": false,
      "inputs": [
        {
          "indexed": false,
          "internalType": "uint32",
          "name": "tour_id",
          "type": "uint32"
        },
        {
          "indexed": false,
          "internalType": "uint32",
          "name": "player1",
          "type": "uint32"
        },
        {
          "indexed": false,
          "internalType": "uint32",
          "name": "player2",
          "type": "uint32"
        },
        {
          "indexed": false,
          "internalType": "uint32",
          "name": "player3",
          "type": "uint32"
        },
        {
          "indexed": false,
          "internalType": "uint32",
          "name": "player4",
          "type": "uint32"
        },
        {
          "indexed": false,
          "internalType": "uint32",
          "name": "ts",
          "type": "uint32"
        },
        {
          "indexed": false,
          "internalType": "bytes32",
          "name": "snapshotHash",
          "type": "bytes32"
        }
      ],
      "name": "TournamentStored",
      "type": "event"
    },
    {
      "inputs": [
        {
          "internalType": "uint32",
          "name": "",
          "type": "uint32"
        }
      ],
      "name": "exists",
      "outputs": [
        {
          "internalType": "bool",
          "name": "",
          "type": "bool"
        }
      ],
      "stateMutability": "view",
      "type": "function"
    },
    {
      "inputs": [],
      "name": "getNbTournamentStored",
      "outputs": [
        {
          "internalType": "uint256",
          "name": "",
          "type": "uint256"
        }
      ],
      "stateMutability": "view",
      "type": "function"
    },
    {
      "inputs": [
        {
          "internalType": "uint32",
          "name": "tour_id",
          "type": "uint32"
        }
      ],
      "name": "getTournament",
      "outputs": [
        {
          "components": [
            {
              "internalType": "uint32",
              "name": "player1",
              "type": "uint32"
            },
            {
              "internalType": "uint32",
              "name": "player2",
              "type": "uint32"
            },
            {
              "internalType": "uint32",
              "name": "player3",
              "type": "uint32"
            },
            {
              "internalType": "uint32",
              "name": "player4",
              "type": "uint32"
            },
            {
              "internalType": "uint32",
              "name": "timestamp",
              "type": "uint32"
            }
          ],
          "internalType": "struct GameStorage.Tournament",
          "name": "",
          "type": "tuple"
        }
      ],
      "stateMutability": "view",
      "type": "function"
    },
    {
      "inputs": [],
      "name": "owner",
      "outputs": [
        {
          "internalType": "address",
          "name": "",
          "type": "address"
        }
      ],
      "stateMutability": "view",
      "type": "function"
    },
    {
      "inputs": [],
      "name": "renounceOwnership",
      "outputs": [],
      "stateMutability": "nonpayable",
      "type": "function"
    },
    {
      "inputs": [
        {
          "internalType": "uint32",
          "name": "tour_id",
          "type": "uint32"
        },
        {
          "internalType": "uint32",
          "name": "player1",
          "type": "uint32"
        },
        {
          "internalType": "uint32",
          "name": "player2",
          "type": "uint32"
        },
        {
          "internalType": "uint32",
          "name": "player3",
          "type": "uint32"
        },
        {
          "internalType": "uint32",
          "name": "player4",
          "type": "uint32"
        }
      ],
      "name": "storeTournament",
      "outputs": [],
      "stateMutability": "nonpayable",
      "type": "function"
    },
    {
      "inputs": [
        {
          "internalType": "uint256",
          "name": "",
          "type": "uint256"
        }
      ],
      "name": "tournamentIds",
      "outputs": [
        {
          "internalType": "uint256",
          "name": "",
          "type": "uint256"
        }
      ],
      "stateMutability": "view",
      "type": "function"
    },
    {
      "inputs": [
        {
          "internalType": "uint32",
          "name": "",
          "type": "uint32"
        }
      ],
      "name": "tournaments",
      "outputs": [
        {
          "internalType": "uint32",
          "name": "player1",
          "type": "uint32"
        },
        {
          "internalType": "uint32",
          "name": "player2",
          "type": "uint32"
        },
        {
          "internalType": "uint32",
          "name": "player3",
          "type": "uint32"
        },
        {
          "internalType": "uint32",
          "name": "player4",
          "type": "uint32"
        },
        {
          "internalType": "uint32",
          "name": "timestamp",
          "type": "uint32"
        }
      ],
      "stateMutability": "view",
      "type": "function"
    },
    {
      "inputs": [
        {
          "internalType": "address",
          "name": "newOwner",
          "type": "address"
        }
      ],
      "name": "transferOwnership",
      "outputs": [],
      "stateMutability": "nonpayable",
      "type": "function"
    }
  ],
  "bytecode": "0x608060405234801561000f575f5ffd5b50604051611026380380611026833981810160405281019061003191906101d7565b805f73ffffffffffffffffffffffffffffffffffffffff168173ffffffffffffffffffffffffffffffffffffffff16036100a2575f6040517f1e4fbdf70000000000000000000000000000000000000000000000000000000081526004016100999190610211565b60405180910390fd5b6100b1816100b860201b60201c565b505061022a565b5f5f5f9054906101000a900473ffffffffffffffffffffffffffffffffffffffff169050815f5f6101000a81548173ffffffffffffffffffffffffffffffffffffffff021916908373ffffffffffffffffffffffffffffffffffffffff1602179055508173ffffffffffffffffffffffffffffffffffffffff168173ffffffffffffffffffffffffffffffffffffffff167f8be0079c531659141344cd1fd0a4f28419497f9722a3daafe3b4186f6b6457e060405160405180910390a35050565b5f5ffd5b5f73ffffffffffffffffffffffffffffffffffffffff82169050919050565b5f6101a68261017d565b9050919050565b6101b68161019c565b81146101c0575f5ffd5b50565b5f815190506101d1816101ad565b92915050565b5f602082840312156101ec576101eb610179565b5b5f6101f9848285016101c3565b91505092915050565b61020b8161019c565b82525050565b5f6020820190506102245f830184610202565b92915050565b610def806102375f395ff3fe608060405234801561000f575f5ffd5b5060043610610091575f3560e01c806387e8b4d71161006457806387e8b4d71461011b578063890d293f1461014f5780638da5cb5b1461017f578063e13f187c1461019d578063f2fde38b146101bb57610091565b806313c369ed146100955780632b32b76d146100c557806349524aad146100e1578063715018a614610111575b5f5ffd5b6100af60048036038101906100aa91906108ff565b6101d7565b6040516100bc9190610944565b60405180910390f35b6100df60048036038101906100da919061095d565b6101f4565b005b6100fb60048036038101906100f69190610a07565b61046c565b6040516101089190610a41565b60405180910390f35b61011961048c565b005b610135600480360381019061013091906108ff565b61049f565b604051610146959493929190610a69565b60405180910390f35b610169600480360381019061016491906108ff565b61051c565b6040516101769190610b2f565b60405180910390f35b610187610674565b6040516101949190610b87565b60405180910390f35b6101a561069b565b6040516101b29190610a41565b60405180910390f35b6101d560048036038101906101d09190610bca565b6106a7565b005b6003602052805f5260405f205f915054906101000a900460ff1681565b6101fc61072b565b60035f8663ffffffff1663ffffffff1681526020019081526020015f205f9054906101000a900460ff1615610266576040517f08c379a000000000000000000000000000000000000000000000000000000000815260040161025d90610c4f565b60405180910390fd5b5f429050600160035f8863ffffffff1663ffffffff1681526020019081526020015f205f6101000a81548160ff0219169083151502179055506040518060a001604052808663ffffffff1681526020018563ffffffff1681526020018463ffffffff1681526020018363ffffffff1681526020018263ffffffff1681525060015f8863ffffffff1663ffffffff1681526020019081526020015f205f820151815f015f6101000a81548163ffffffff021916908363ffffffff1602179055506020820151815f0160046101000a81548163ffffffff021916908363ffffffff1602179055506040820151815f0160086101000a81548163ffffffff021916908363ffffffff1602179055506060820151815f01600c6101000a81548163ffffffff021916908363ffffffff1602179055506080820151815f0160106101000a81548163ffffffff021916908363ffffffff1602179055509050505f8686868686866040516020016103dc96959493929190610c6d565b6040516020818303038152906040528051906020012090507fb6f80587d57c96d738c50b668082f1650ea28fdd0e6d7209de786cfb64dd337d8787878787878760405161042f9796959493929190610ce4565b60405180910390a1600287908060018154018082558091505060019003905f5260205f20015f909163ffffffff1690919091505550505050505050565b6002818154811061047b575f80fd5b905f5260205f20015f915090505481565b61049461072b565b61049d5f6107b2565b565b6001602052805f5260405f205f91509050805f015f9054906101000a900463ffffffff1690805f0160049054906101000a900463ffffffff1690805f0160089054906101000a900463ffffffff1690805f01600c9054906101000a900463ffffffff1690805f0160109054906101000a900463ffffffff16905085565b61052461087a565b60035f8363ffffffff1663ffffffff1681526020019081526020015f205f9054906101000a900460ff1661058d576040517f08c379a000000000000000000000000000000000000000000000000000000000815260040161058490610d9b565b60405180910390fd5b60015f8363ffffffff1663ffffffff1681526020019081526020015f206040518060a00160405290815f82015f9054906101000a900463ffffffff1663ffffffff1663ffffffff1681526020015f820160049054906101000a900463ffffffff1663ffffffff1663ffffffff1681526020015f820160089054906101000a900463ffffffff1663ffffffff1663ffffffff1681526020015f8201600c9054906101000a900463ffffffff1663ffffffff1663ffffffff1681526020015f820160109054906101000a900463ffffffff1663ffffffff1663ffffffff16815250509050919050565b5f5f5f9054906101000a900473ffffffffffffffffffffffffffffffffffffffff16905090565b5f600280549050905090565b6106af61072b565b5f73ffffffffffffffffffffffffffffffffffffffff168173ffffffffffffffffffffffffffffffffffffffff160361071f575f6040517f1e4fbdf70000000000000000000000000000000000000000000000000000000081526004016107169190610b87565b60405180910390fd5b610728816107b2565b50565b610733610873565b73ffffffffffffffffffffffffffffffffffffffff16610751610674565b73ffffffffffffffffffffffffffffffffffffffff16146107b057610774610873565b6040517f118cdaa70000000000000000000000000000000000000000000000000000000081526004016107a79190610b87565b60405180910390fd5b565b5f5f5f9054906101000a900473ffffffffffffffffffffffffffffffffffffffff169050815f5f6101000a81548173ffffffffffffffffffffffffffffffffffffffff021916908373ffffffffffffffffffffffffffffffffffffffff1602179055508173ffffffffffffffffffffffffffffffffffffffff168173ffffffffffffffffffffffffffffffffffffffff167f8be0079c531659141344cd1fd0a4f28419497f9722a3daafe3b4186f6b6457e060405160405180910390a35050565b5f33905090565b6040518060a001604052805f63ffffffff1681526020015f63ffffffff1681526020015f63ffffffff1681526020015f63ffffffff1681526020015f63ffffffff1681525090565b5f5ffd5b5f63ffffffff82169050919050565b6108de816108c6565b81146108e8575f5ffd5b50565b5f813590506108f9816108d5565b92915050565b5f60208284031215610914576109136108c2565b5b5f610921848285016108eb565b91505092915050565b5f8115159050919050565b61093e8161092a565b82525050565b5f6020820190506109575f830184610935565b92915050565b5f5f5f5f5f60a08688031215610976576109756108c2565b5b5f610983888289016108eb565b9550506020610994888289016108eb565b94505060406109a5888289016108eb565b93505060606109b6888289016108eb565b92505060806109c7888289016108eb565b9150509295509295909350565b5f819050919050565b6109e6816109d4565b81146109f0575f5ffd5b50565b5f81359050610a01816109dd565b92915050565b5f60208284031215610a1c57610a1b6108c2565b5b5f610a29848285016109f3565b91505092915050565b610a3b816109d4565b82525050565b5f602082019050610a545f830184610a32565b92915050565b610a63816108c6565b82525050565b5f60a082019050610a7c5f830188610a5a565b610a896020830187610a5a565b610a966040830186610a5a565b610aa36060830185610a5a565b610ab06080830184610a5a565b9695505050505050565b610ac3816108c6565b82525050565b60a082015f820151610add5f850182610aba565b506020820151610af06020850182610aba565b506040820151610b036040850182610aba565b506060820151610b166060850182610aba565b506080820151610b296080850182610aba565b50505050565b5f60a082019050610b425f830184610ac9565b92915050565b5f73ffffffffffffffffffffffffffffffffffffffff82169050919050565b5f610b7182610b48565b9050919050565b610b8181610b67565b82525050565b5f602082019050610b9a5f830184610b78565b92915050565b610ba981610b67565b8114610bb3575f5ffd5b50565b5f81359050610bc481610ba0565b92915050565b5f60208284031215610bdf57610bde6108c2565b5b5f610bec84828501610bb6565b91505092915050565b5f82825260208201905092915050565b7f546f75726e616d656e7420616c72656164792073746f726564210000000000005f82015250565b5f610c39601a83610bf5565b9150610c4482610c05565b602082019050919050565b5f6020820190508181035f830152610c6681610c2d565b9050919050565b5f60c082019050610c805f830189610a5a565b610c8d6020830188610a5a565b610c9a6040830187610a5a565b610ca76060830186610a5a565b610cb46080830185610a5a565b610cc160a0830184610a5a565b979650505050505050565b5f819050919050565b610cde81610ccc565b82525050565b5f60e082019050610cf75f83018a610a5a565b610d046020830189610a5a565b610d116040830188610a5a565b610d1e6060830187610a5a565b610d2b6080830186610a5a565b610d3860a0830185610a5a565b610d4560c0830184610cd5565b98975050505050505050565b7f546f75726e616d656e7420646f6573206e6f74206578697374210000000000005f82015250565b5f610d85601a83610bf5565b9150610d9082610d51565b602082019050919050565b5f6020820190508181035f830152610db281610d79565b905091905056fea2646970667358221220cc72640fb15f72bf2b2cfab0f08086f3597af7f53be1eecb1383638d6521214664736f6c634300081c0033",
  "linkReferences": {},
  "deployedLinkReferences": {},
  "immutableReferences": {},
  "inputSourceName": "project/contracts/GameStorage.sol",
  "buildInfoId": "solc-0_8_28-8338c2d1766e63335f86a83f568771afaa0378ce"
}