{
  "_format": "hh3-artifact-1",
  "contractName": "GameStorage",
  "sourceName": "contracts/GameStorage.sol",
  "abi": [
    {
      "inputs": [
        {
          "internalType": "address",
          "name": "initialOwner",
          "type": "address"
        }
      ],
      "stateMutability": "nonpayable",
      "type": "constructor"
    },
    {
      "inputs": [
        {
          "internalType": "address",
          "name": "owner",
          "type": "address"
        }
      ],
      "name": "OwnableInvalidOwner",
      "type": "error"
    },
    {
      "inputs": [
        {
          "internalType": "address",
          "name": "account",
          "type": "address"
        }
      ],
      "name": "OwnableUnauthorizedAccount",
      "type": "error"
    },
    {
      "anonymous": false,
      "inputs": [
        {
          "indexed": true,
          "internalType": "address",
          "name": "previousOwner",
          "type": "address"
        },
        {
          "indexed": true,
          "internalType": "address",
          "name": "newOwner",
          "type": "address"
        }
      ],
      "name": "OwnershipTransferred",
      "type": "event"
    },
    {
      "anonymous": false,
      "inputs": [
        {
          "indexed": false,
          "internalType": "uint8",
          "name": "match_id",
          "type": "uint8"
        },
        {
          "indexed": false,
          "internalType": "uint8",
          "name": "player1",
          "type": "uint8"
        },
        {
          "indexed": false,
          "internalType": "uint8",
          "name": "player2",
          "type": "uint8"
        },
        {
          "indexed": false,
          "internalType": "uint8",
          "name": "player3",
          "type": "uint8"
        },
        {
          "indexed": false,
          "internalType": "uint8",
          "name": "player4",
          "type": "uint8"
        }
      ],
      "name": "TournamentStored",
      "type": "event"
    },
    {
      "inputs": [
        {
          "internalType": "uint8",
          "name": "id",
          "type": "uint8"
        }
      ],
      "name": "getTournament",
      "outputs": [
        {
          "components": [
            {
              "internalType": "uint8",
              "name": "player1",
              "type": "uint8"
            },
            {
              "internalType": "uint8",
              "name": "player2",
              "type": "uint8"
            },
            {
              "internalType": "uint8",
              "name": "player3",
              "type": "uint8"
            },
            {
              "internalType": "uint8",
              "name": "player4",
              "type": "uint8"
            },
            {
              "internalType": "uint32",
              "name": "timestamp",
              "type": "uint32"
            }
          ],
          "internalType": "struct GameStorage.Tournament",
          "name": "",
          "type": "tuple"
        }
      ],
      "stateMutability": "view",
      "type": "function"
    },
    {
      "inputs": [],
      "name": "owner",
      "outputs": [
        {
          "internalType": "address",
          "name": "",
          "type": "address"
        }
      ],
      "stateMutability": "view",
      "type": "function"
    },
    {
      "inputs": [],
      "name": "renounceOwnership",
      "outputs": [],
      "stateMutability": "nonpayable",
      "type": "function"
    },
    {
      "inputs": [
        {
          "internalType": "uint8",
          "name": "id",
          "type": "uint8"
        },
        {
          "internalType": "uint8",
          "name": "p1",
          "type": "uint8"
        },
        {
          "internalType": "uint8",
          "name": "p2",
          "type": "uint8"
        },
        {
          "internalType": "uint8",
          "name": "p3",
          "type": "uint8"
        },
        {
          "internalType": "uint8",
          "name": "p4",
          "type": "uint8"
        }
      ],
      "name": "storeTournament",
      "outputs": [],
      "stateMutability": "nonpayable",
      "type": "function"
    },
    {
      "inputs": [
        {
          "internalType": "uint8",
          "name": "",
          "type": "uint8"
        }
      ],
      "name": "tournaments",
      "outputs": [
        {
          "internalType": "uint8",
          "name": "player1",
          "type": "uint8"
        },
        {
          "internalType": "uint8",
          "name": "player2",
          "type": "uint8"
        },
        {
          "internalType": "uint8",
          "name": "player3",
          "type": "uint8"
        },
        {
          "internalType": "uint8",
          "name": "player4",
          "type": "uint8"
        },
        {
          "internalType": "uint32",
          "name": "timestamp",
          "type": "uint32"
        }
      ],
      "stateMutability": "view",
      "type": "function"
    },
    {
      "inputs": [
        {
          "internalType": "address",
          "name": "newOwner",
          "type": "address"
        }
      ],
      "name": "transferOwnership",
      "outputs": [],
      "stateMutability": "nonpayable",
      "type": "function"
    }
  ],
  "bytecode": "0x6080604052348015600e575f5ffd5b506040516106e03803806106e0833981016040819052602b9160b4565b806001600160a01b038116605857604051631e4fbdf760e01b81525f600482015260240160405180910390fd5b605f816065565b505060df565b5f80546001600160a01b038381166001600160a01b0319831681178455604051919092169283917f8be0079c531659141344cd1fd0a4f28419497f9722a3daafe3b4186f6b6457e09190a35050565b5f6020828403121560c3575f5ffd5b81516001600160a01b038116811460d8575f5ffd5b9392505050565b6105f4806100ec5f395ff3fe608060405234801561000f575f5ffd5b5060043610610060575f3560e01c806306c507031461006457806309a4e849146100f2578063715018a6146101585780638da5cb5b14610162578063f2fde38b1461017c578063f91d4b911461018f575b5f5ffd5b6100b3610072366004610517565b60016020525f908152604090205460ff8082169161010081048216916201000082048116916301000000810490911690640100000000900463ffffffff1685565b6040805160ff9687168152948616602086015292851692840192909252909216606082015263ffffffff909116608082015260a0015b60405180910390f35b610105610100366004610517565b6101a2565b6040516100e991905f60a08201905060ff835116825260ff602084015116602083015260ff604084015116604083015260ff606084015116606083015263ffffffff608084015116608083015292915050565b6101606102a8565b005b5f546040516001600160a01b0390911681526020016100e9565b61016061018a366004610537565b6102bb565b61016061019d36600461055d565b6102f8565b6040805160a0810182525f8082526020820181905291810182905260608101829052608081019190915260ff82165f90815260016020526040812054640100000000900463ffffffff16900361023f5760405162461bcd60e51b815260206004820152601960248201527f546f75726e616d656e7420646f6573206e6f742065786973740000000000000060448201526064015b60405180910390fd5b5060ff9081165f90815260016020908152604091829020825160a08101845290548085168252610100810485169282019290925262010000820484169281019290925263010000008104909216606082015264010000000090910463ffffffff16608082015290565b6102b0610487565b6102b95f6104b3565b565b6102c3610487565b6001600160a01b0381166102ec57604051631e4fbdf760e01b81525f6004820152602401610236565b6102f5816104b3565b50565b610300610487565b60ff85165f90815260016020526040902054640100000000900463ffffffff161561035f5760405162461bcd60e51b815260206004820152600f60248201526e125108185b1c9958591e481d5cd959608a1b6044820152606401610236565b6040805160a08101825260ff808716825285811660208084019182528683168486019081528684166060860190815263ffffffff428116608088019081528d87165f9081526001909552938890209651875495519351925194519091166401000000000267ffffffff000000001994871663010000000263ff0000001993881662010000029390931663ffff0000199488166101000261ffff1990971692909716919091179490941791909116939093179290921791909116179055517f537aa5e26e2414a159a281e347931d5475adce3beb7ce904d8a7180f1d5eb5bd90610478908790879087908790879060ff95861681529385166020850152918416604084015283166060830152909116608082015260a00190565b60405180910390a15050505050565b5f546001600160a01b031633146102b95760405163118cdaa760e01b8152336004820152602401610236565b5f80546001600160a01b038381166001600160a01b0319831681178455604051919092169283917f8be0079c531659141344cd1fd0a4f28419497f9722a3daafe3b4186f6b6457e09190a35050565b803560ff81168114610512575f5ffd5b919050565b5f60208284031215610527575f5ffd5b61053082610502565b9392505050565b5f60208284031215610547575f5ffd5b81356001600160a01b0381168114610530575f5ffd5b5f5f5f5f5f60a08688031215610571575f5ffd5b61057a86610502565b945061058860208701610502565b935061059660408701610502565b92506105a460608701610502565b91506105b260808701610502565b9050929550929590935056fea26469706673582212209c30ec6a35660feb8cced8ea25fd48b034ddf2d099be9693d079e28c9fffc7a864736f6c634300081c0033",
  "linkReferences": {},
  "deployedLinkReferences": {},
  "immutableReferences": {},
  "inputSourceName": "project/contracts/GameStorage.sol",
  "buildInfoId": "solc-0_8_28-53526d54fb3d1ff804fdc8cbb00001178ca06998"
}