{
  "_format": "hh3-artifact-1",
  "contractName": "GameStorage",
  "sourceName": "contracts/GameStorage.sol",
  "abi": [
    {
      "inputs": [
        {
          "internalType": "address",
          "name": "initialOwner",
          "type": "address"
        }
      ],
      "stateMutability": "nonpayable",
      "type": "constructor"
    },
    {
      "inputs": [
        {
          "internalType": "address",
          "name": "owner",
          "type": "address"
        }
      ],
      "name": "OwnableInvalidOwner",
      "type": "error"
    },
    {
      "inputs": [
        {
          "internalType": "address",
          "name": "account",
          "type": "address"
        }
      ],
      "name": "OwnableUnauthorizedAccount",
      "type": "error"
    },
    {
      "anonymous": false,
      "inputs": [
        {
          "indexed": true,
          "internalType": "address",
          "name": "previousOwner",
          "type": "address"
        },
        {
          "indexed": true,
          "internalType": "address",
          "name": "newOwner",
          "type": "address"
        }
      ],
      "name": "OwnershipTransferred",
      "type": "event"
    },
    {
      "anonymous": false,
      "inputs": [
        {
          "indexed": false,
          "internalType": "uint32",
          "name": "tour_id",
          "type": "uint32"
        },
        {
          "indexed": false,
          "internalType": "uint32",
          "name": "player1",
          "type": "uint32"
        },
        {
          "indexed": false,
          "internalType": "uint32",
          "name": "player2",
          "type": "uint32"
        },
        {
          "indexed": false,
          "internalType": "uint32",
          "name": "player3",
          "type": "uint32"
        },
        {
          "indexed": false,
          "internalType": "uint32",
          "name": "player4",
          "type": "uint32"
        },
        {
          "indexed": false,
          "internalType": "uint32",
          "name": "ts",
          "type": "uint32"
        },
        {
          "indexed": false,
          "internalType": "bytes32",
          "name": "snapshotHash",
          "type": "bytes32"
        }
      ],
      "name": "TournamentStored",
      "type": "event"
    },
    {
      "inputs": [
        {
          "internalType": "uint32",
          "name": "",
          "type": "uint32"
        }
      ],
      "name": "exists",
      "outputs": [
        {
          "internalType": "bool",
          "name": "",
          "type": "bool"
        }
      ],
      "stateMutability": "view",
      "type": "function"
    },
    {
      "inputs": [],
      "name": "getNbTournamentStored",
      "outputs": [
        {
          "internalType": "uint256",
          "name": "",
          "type": "uint256"
        }
      ],
      "stateMutability": "view",
      "type": "function"
    },
    {
      "inputs": [
        {
          "internalType": "uint32",
          "name": "tour_id",
          "type": "uint32"
        }
      ],
      "name": "getTournament",
      "outputs": [
        {
          "components": [
            {
              "internalType": "uint32",
              "name": "player1",
              "type": "uint32"
            },
            {
              "internalType": "uint32",
              "name": "player2",
              "type": "uint32"
            },
            {
              "internalType": "uint32",
              "name": "player3",
              "type": "uint32"
            },
            {
              "internalType": "uint32",
              "name": "player4",
              "type": "uint32"
            },
            {
              "internalType": "uint32",
              "name": "timestamp",
              "type": "uint32"
            }
          ],
          "internalType": "struct GameStorage.Tournament",
          "name": "",
          "type": "tuple"
        }
      ],
      "stateMutability": "view",
      "type": "function"
    },
    {
      "inputs": [],
      "name": "owner",
      "outputs": [
        {
          "internalType": "address",
          "name": "",
          "type": "address"
        }
      ],
      "stateMutability": "view",
      "type": "function"
    },
    {
      "inputs": [],
      "name": "renounceOwnership",
      "outputs": [],
      "stateMutability": "nonpayable",
      "type": "function"
    },
    {
      "inputs": [
        {
          "internalType": "uint32",
          "name": "tour_id",
          "type": "uint32"
        },
        {
          "internalType": "uint32",
          "name": "player1",
          "type": "uint32"
        },
        {
          "internalType": "uint32",
          "name": "player2",
          "type": "uint32"
        },
        {
          "internalType": "uint32",
          "name": "player3",
          "type": "uint32"
        },
        {
          "internalType": "uint32",
          "name": "player4",
          "type": "uint32"
        }
      ],
      "name": "storeTournament",
      "outputs": [],
      "stateMutability": "nonpayable",
      "type": "function"
    },
    {
      "inputs": [
        {
          "internalType": "uint256",
          "name": "",
          "type": "uint256"
        }
      ],
      "name": "tournamentIds",
      "outputs": [
        {
          "internalType": "uint256",
          "name": "",
          "type": "uint256"
        }
      ],
      "stateMutability": "view",
      "type": "function"
    },
    {
      "inputs": [
        {
          "internalType": "uint32",
          "name": "",
          "type": "uint32"
        }
      ],
      "name": "tournaments",
      "outputs": [
        {
          "internalType": "uint32",
          "name": "player1",
          "type": "uint32"
        },
        {
          "internalType": "uint32",
          "name": "player2",
          "type": "uint32"
        },
        {
          "internalType": "uint32",
          "name": "player3",
          "type": "uint32"
        },
        {
          "internalType": "uint32",
          "name": "player4",
          "type": "uint32"
        },
        {
          "internalType": "uint32",
          "name": "timestamp",
          "type": "uint32"
        }
      ],
      "stateMutability": "view",
      "type": "function"
    },
    {
      "inputs": [
        {
          "internalType": "address",
          "name": "newOwner",
          "type": "address"
        }
      ],
      "name": "transferOwnership",
      "outputs": [],
      "stateMutability": "nonpayable",
      "type": "function"
    }
  ],
  "bytecode": "0x6080604052348015600e575f5ffd5b5060405161087f38038061087f833981016040819052602b9160b4565b806001600160a01b038116605857604051631e4fbdf760e01b81525f600482015260240160405180910390fd5b605f816065565b505060df565b5f80546001600160a01b038381166001600160a01b0319831681178455604051919092169283917f8be0079c531659141344cd1fd0a4f28419497f9722a3daafe3b4186f6b6457e09190a35050565b5f6020828403121560c3575f5ffd5b81516001600160a01b038116811460d8575f5ffd5b9392505050565b610793806100ec5f395ff3fe608060405234801561000f575f5ffd5b5060043610610090575f3560e01c806387e8b4d71161006357806387e8b4d714610109578063890d293f146101905780638da5cb5b14610202578063e13f187c1461021c578063f2fde38b14610224575f5ffd5b806313c369ed146100945780632b32b76d146100cb57806349524aad146100e0578063715018a614610101575b5f5ffd5b6100b66100a236600461069f565b60036020525f908152604090205460ff1681565b60405190151581526020015b60405180910390f35b6100de6100d93660046106bf565b610237565b005b6100f36100ee366004610720565b6104a8565b6040519081526020016100c2565b6100de6104c7565b61015961011736600461069f565b60016020525f908152604090205463ffffffff808216916401000000008104821691600160401b8204811691600160601b8104821691600160801b9091041685565b6040805163ffffffff968716815294861660208601529285169284019290925283166060830152909116608082015260a0016100c2565b6101a361019e36600461069f565b6104da565b6040516100c291905f60a08201905063ffffffff835116825263ffffffff602084015116602083015263ffffffff604084015116604083015263ffffffff606084015116606083015263ffffffff608084015116608083015292915050565b5f546040516001600160a01b0390911681526020016100c2565b6002546100f3565b6100de610232366004610737565b6105cf565b61023f61060c565b63ffffffff85165f9081526003602052604090205460ff16156102a95760405162461bcd60e51b815260206004820152601a60248201527f546f75726e616d656e7420616c72656164792073746f7265642100000000000060448201526064015b60405180910390fd5b63ffffffff8086165f818152600360209081526040808320805460ff19166001908117909155815160a0810183528a8716815289871681850190815289881682850190815289891660608401908152428a8116608086019081529989529487528588209351845493519251915199518b16600160801b0263ffffffff60801b199a8c16600160601b0263ffffffff60601b19938d16600160401b02939093166fffffffffffffffff000000000000000019948d166401000000000267ffffffffffffffff1990961692909c1691909117939093179190911698909817979097179590951695909517909355915190916103e0918991899189918991899189910163ffffffff96871681529486166020860152928516604085015290841660608401528316608083015290911660a082015260c00190565b60408051808303601f19018152828252805160209182012063ffffffff8b811685528a811692850192909252888216848401528782166060850152868216608085015290851660a084015260c0830181905290519092507fb6f80587d57c96d738c50b668082f1650ea28fdd0e6d7209de786cfb64dd337d9181900360e00190a15050600280546001810182555f9190915263ffffffff9095167f405787fa12a823e0f2b7631cc41b3ba8828b3321ca811111fa75cd3aa3bb5ace9095019490945550505050565b600281815481106104b7575f80fd5b5f91825260209091200154905081565b6104cf61060c565b6104d85f610638565b565b6040805160a0810182525f8082526020808301829052828401829052606083018290526080830182905263ffffffff8516825260039052919091205460ff166105655760405162461bcd60e51b815260206004820152601a60248201527f546f75726e616d656e7420646f6573206e6f742065786973742100000000000060448201526064016102a0565b5063ffffffff9081165f90815260016020908152604091829020825160a081018452905480851682526401000000008104851692820192909252600160401b8204841692810192909252600160601b810483166060830152600160801b9004909116608082015290565b6105d761060c565b6001600160a01b03811661060057604051631e4fbdf760e01b81525f60048201526024016102a0565b61060981610638565b50565b5f546001600160a01b031633146104d85760405163118cdaa760e01b81523360048201526024016102a0565b5f80546001600160a01b038381166001600160a01b0319831681178455604051919092169283917f8be0079c531659141344cd1fd0a4f28419497f9722a3daafe3b4186f6b6457e09190a35050565b803563ffffffff8116811461069a575f5ffd5b919050565b5f602082840312156106af575f5ffd5b6106b882610687565b9392505050565b5f5f5f5f5f60a086880312156106d3575f5ffd5b6106dc86610687565b94506106ea60208701610687565b93506106f860408701610687565b925061070660608701610687565b915061071460808701610687565b90509295509295909350565b5f60208284031215610730575f5ffd5b5035919050565b5f60208284031215610747575f5ffd5b81356001600160a01b03811681146106b8575f5ffdfea2646970667358221220a9d5d5db5821d6d2c5cbabb5f52e0d5455981e20e61cf2d79521a9eca45270f764736f6c634300081c0033",
  "linkReferences": {},
  "deployedLinkReferences": {},
  "immutableReferences": {},
  "inputSourceName": "project/contracts/GameStorage.sol",
  "buildInfoId": "solc-0_8_28-182c07f09ddae47ddc6468aadf3314b5199ffd2a"
}